{
  "contractName": "Dao",
  "abi": [
    {
      "inputs": [
        {
          "internalType": "uint256",
          "name": "_participationTime",
          "type": "uint256"
        },
        {
          "internalType": "uint256",
          "name": "_voteTime",
          "type": "uint256"
        },
        {
          "internalType": "uint256",
          "name": "_quorum",
          "type": "uint256"
        }
      ],
      "stateMutability": "nonpayable",
      "type": "constructor"
    },
    {
      "inputs": [
        {
          "internalType": "address",
          "name": "",
          "type": "address"
        }
      ],
      "name": "isInvestor",
      "outputs": [
        {
          "internalType": "bool",
          "name": "",
          "type": "bool"
        }
      ],
      "stateMutability": "view",
      "type": "function",
      "constant": true
    },
    {
      "inputs": [],
      "name": "nextProposalId",
      "outputs": [
        {
          "internalType": "uint256",
          "name": "",
          "type": "uint256"
        }
      ],
      "stateMutability": "view",
      "type": "function",
      "constant": true
    },
    {
      "inputs": [
        {
          "internalType": "address",
          "name": "",
          "type": "address"
        }
      ],
      "name": "numOfShare",
      "outputs": [
        {
          "internalType": "uint256",
          "name": "",
          "type": "uint256"
        }
      ],
      "stateMutability": "view",
      "type": "function",
      "constant": true
    },
    {
      "inputs": [
        {
          "internalType": "uint256",
          "name": "",
          "type": "uint256"
        }
      ],
      "name": "proposal",
      "outputs": [
        {
          "internalType": "uint256",
          "name": "causeId",
          "type": "uint256"
        },
        {
          "internalType": "string",
          "name": "causeDescription",
          "type": "string"
        },
        {
          "internalType": "address payable",
          "name": "recipient",
          "type": "address"
        },
        {
          "internalType": "uint256",
          "name": "amount",
          "type": "uint256"
        },
        {
          "internalType": "uint256",
          "name": "votes",
          "type": "uint256"
        },
        {
          "internalType": "uint256",
          "name": "endTime",
          "type": "uint256"
        },
        {
          "internalType": "bool",
          "name": "isExecuted",
          "type": "bool"
        }
      ],
      "stateMutability": "view",
      "type": "function",
      "constant": true
    },
    {
      "inputs": [
        {
          "internalType": "uint256",
          "name": "",
          "type": "uint256"
        }
      ],
      "name": "proposalList",
      "outputs": [
        {
          "internalType": "uint256",
          "name": "causeId",
          "type": "uint256"
        },
        {
          "internalType": "string",
          "name": "causeDescription",
          "type": "string"
        },
        {
          "internalType": "address payable",
          "name": "recipient",
          "type": "address"
        },
        {
          "internalType": "uint256",
          "name": "amount",
          "type": "uint256"
        },
        {
          "internalType": "uint256",
          "name": "votes",
          "type": "uint256"
        },
        {
          "internalType": "uint256",
          "name": "endTime",
          "type": "uint256"
        },
        {
          "internalType": "bool",
          "name": "isExecuted",
          "type": "bool"
        }
      ],
      "stateMutability": "view",
      "type": "function",
      "constant": true
    },
    {
      "inputs": [],
      "name": "totalFunds",
      "outputs": [
        {
          "internalType": "uint256",
          "name": "",
          "type": "uint256"
        }
      ],
      "stateMutability": "view",
      "type": "function",
      "constant": true
    },
    {
      "inputs": [],
      "name": "totalShares",
      "outputs": [
        {
          "internalType": "uint256",
          "name": "",
          "type": "uint256"
        }
      ],
      "stateMutability": "view",
      "type": "function",
      "constant": true
    },
    {
      "inputs": [
        {
          "internalType": "address",
          "name": "",
          "type": "address"
        },
        {
          "internalType": "address",
          "name": "",
          "type": "address"
        }
      ],
      "name": "withdrwalStatus",
      "outputs": [
        {
          "internalType": "bool",
          "name": "",
          "type": "bool"
        }
      ],
      "stateMutability": "view",
      "type": "function",
      "constant": true
    },
    {
      "inputs": [],
      "name": "contribuition",
      "outputs": [],
      "stateMutability": "payable",
      "type": "function",
      "payable": true
    },
    {
      "inputs": [
        {
          "internalType": "uint256",
          "name": "valueToRedeem",
          "type": "uint256"
        }
      ],
      "name": "redeemShare",
      "outputs": [],
      "stateMutability": "payable",
      "type": "function",
      "payable": true
    },
    {
      "inputs": [
        {
          "internalType": "uint256",
          "name": "amount",
          "type": "uint256"
        },
        {
          "internalType": "address",
          "name": "to",
          "type": "address"
        }
      ],
      "name": "transfershares",
      "outputs": [],
      "stateMutability": "nonpayable",
      "type": "function"
    },
    {
      "inputs": [
        {
          "internalType": "string",
          "name": "_causeDescriptoin",
          "type": "string"
        },
        {
          "internalType": "uint256",
          "name": "amount",
          "type": "uint256"
        },
        {
          "internalType": "address payable",
          "name": "_recipient",
          "type": "address"
        }
      ],
      "name": "createProposal",
      "outputs": [],
      "stateMutability": "nonpayable",
      "type": "function"
    },
    {
      "inputs": [
        {
          "internalType": "uint256",
          "name": "_proposalId",
          "type": "uint256"
        }
      ],
      "name": "voteProposal",
      "outputs": [],
      "stateMutability": "nonpayable",
      "type": "function"
    },
    {
      "inputs": [
        {
          "internalType": "uint256",
          "name": "proposalId",
          "type": "uint256"
        }
      ],
      "name": "executeProposal",
      "outputs": [],
      "stateMutability": "nonpayable",
      "type": "function"
    },
    {
      "inputs": [
        {
          "internalType": "address",
          "name": "to",
          "type": "address"
        }
      ],
      "name": "allow",
      "outputs": [],
      "stateMutability": "nonpayable",
      "type": "function"
    },
    {
      "inputs": [
        {
          "internalType": "address",
          "name": "to",
          "type": "address"
        }
      ],
      "name": "disAllow",
      "outputs": [],
      "stateMutability": "nonpayable",
      "type": "function"
    },
    {
      "inputs": [],
      "name": "withdrawAllEther",
      "outputs": [],
      "stateMutability": "nonpayable",
      "type": "function"
    },
    {
      "inputs": [],
      "name": "ProposalList",
      "outputs": [
        {
          "components": [
            {
              "internalType": "uint256",
              "name": "causeId",
              "type": "uint256"
            },
            {
              "internalType": "string",
              "name": "causeDescription",
              "type": "string"
            },
            {
              "internalType": "address payable",
              "name": "recipient",
              "type": "address"
            },
            {
              "internalType": "uint256",
              "name": "amount",
              "type": "uint256"
            },
            {
              "internalType": "uint256",
              "name": "votes",
              "type": "uint256"
            },
            {
              "internalType": "uint256",
              "name": "endTime",
              "type": "uint256"
            },
            {
              "internalType": "bool",
              "name": "isExecuted",
              "type": "bool"
            }
          ],
          "internalType": "struct Dao.Proposal[]",
          "name": "",
          "type": "tuple[]"
        }
      ],
      "stateMutability": "view",
      "type": "function",
      "constant": true
    },
    {
      "inputs": [],
      "name": "InvestorList",
      "outputs": [
        {
          "internalType": "address[]",
          "name": "",
          "type": "address[]"
        }
      ],
      "stateMutability": "view",
      "type": "function",
      "constant": true
    }
  ],
  "bytecode": "0x60806040523480156200001157600080fd5b506040516200349238038062003492833981810160405281019062000037919062000136565b600081118015620000485750606481105b6200008a576040517f08c379a0000000000000000000000000000000000000000000000000000000008152600401620000819062000219565b60405180910390fd5b33600d60006101000a81548173ffffffffffffffffffffffffffffffffffffffff021916908373ffffffffffffffffffffffffffffffffffffffff1602179055508242620000d991906200026a565b600a8190555081600b8190555080600c81905550505050620002a5565b600080fd5b6000819050919050565b6200011081620000fb565b81146200011c57600080fd5b50565b600081519050620001308162000105565b92915050565b600080600060608486031215620001525762000151620000f6565b5b600062000162868287016200011f565b935050602062000175868287016200011f565b925050604062000188868287016200011f565b9150509250925092565b600082825260208201905092915050565b7f5468652076616c7565206f662071756f72756d2073686f756c6420626520626560008201527f747765656e203020616e642031302e0000000000000000000000000000000000602082015250565b600062000201602f8362000192565b91506200020e82620001a3565b604082019050919050565b600060208201905081810360008301526200023481620001f2565b9050919050565b7f4e487b7100000000000000000000000000000000000000000000000000000000600052601160045260246000fd5b60006200027782620000fb565b91506200028483620000fb565b92508282019050808211156200029f576200029e6200023b565b5b92915050565b6131dd80620002b56000396000f3fe6080604052600436106101145760003560e01c8063807896d5116100a0578063cf8aacdd11610064578063cf8aacdd1461039c578063d0197f27146103c5578063df18b7f4146103cf578063f242b772146103fa578063ff9913e81461043757610114565b8063807896d5146102ac578063868643df146102d5578063968ed600146102f1578063c6311e3f1461031c578063cee2a9cf1461035f57610114565b806330326c17116100e757806330326c17146101d357806331c91117146102165780633a98ef391461022d5780636ac1e01f146102585780636dfc10991461028157610114565b80630b0d56c6146101195780630d61b5191461014257806323c2f7251461016b5780632ab09d14146101a8575b600080fd5b34801561012557600080fd5b50610140600480360381019061013b9190611f2f565b610460565b005b34801561014e57600080fd5b5061016960048036038101906101649190611f6f565b610759565b005b34801561017757600080fd5b50610192600480360381019061018d9190611f9c565b61098f565b60405161019f9190611fd8565b60405180910390f35b3480156101b457600080fd5b506101bd6109a7565b6040516101ca9190611fd8565b60405180910390f35b3480156101df57600080fd5b506101fa60048036038101906101f59190611f6f565b6109ad565b60405161020d97969594939291906120bf565b60405180910390f35b34801561022257600080fd5b5061022b610aa4565b005b34801561023957600080fd5b50610242610c2c565b60405161024f9190611fd8565b60405180910390f35b34801561026457600080fd5b5061027f600480360381019061027a91906121c6565b610c32565b005b34801561028d57600080fd5b50610296610f96565b6040516102a3919061240f565b60405180910390f35b3480156102b857600080fd5b506102d360048036038101906102ce9190611f6f565b611120565b005b6102ef60048036038101906102ea9190611f6f565b611446565b005b3480156102fd57600080fd5b506103066116f1565b6040516103139190611fd8565b60405180910390f35b34801561032857600080fd5b50610343600480360381019061033e9190611f6f565b6116f7565b60405161035697969594939291906120bf565b60405180910390f35b34801561036b57600080fd5b5061038660048036038101906103819190611f9c565b6117fe565b6040516103939190612431565b60405180910390f35b3480156103a857600080fd5b506103c360048036038101906103be9190611f9c565b61181e565b005b6103cd611968565b005b3480156103db57600080fd5b506103e4611be1565b6040516103f1919061250a565b60405180910390f35b34801561040657600080fd5b50610421600480360381019061041c919061252c565b611c6f565b60405161042e9190612431565b60405180910390f35b34801561044357600080fd5b5061045e60048036038101906104599190611f9c565b611c9e565b005b60011515600160003373ffffffffffffffffffffffffffffffffffffffff1673ffffffffffffffffffffffffffffffffffffffff16815260200190815260200160002060009054906101000a900460ff161515146104f3576040517f08c379a00000000000000000000000000000000000000000000000000000000081526004016104ea906125b8565b60405180910390fd5b600260003373ffffffffffffffffffffffffffffffffffffffff1673ffffffffffffffffffffffffffffffffffffffff16815260200190815260200160002054821115610575576040517f08c379a000000000000000000000000000000000000000000000000000000000815260040161056c90612624565b60405180910390fd5b8160085410156105ba576040517f08c379a00000000000000000000000000000000000000000000000000000000081526004016105b190612690565b60405180910390fd5b81600260003373ffffffffffffffffffffffffffffffffffffffff1673ffffffffffffffffffffffffffffffffffffffff168152602001908152602001600020600082825461060991906126df565b925050819055506000600260003373ffffffffffffffffffffffffffffffffffffffff1673ffffffffffffffffffffffffffffffffffffffff16815260200190815260200160002054036106a85760001515600160003373ffffffffffffffffffffffffffffffffffffffff1673ffffffffffffffffffffffffffffffffffffffff16815260200190815260200160002060009054906101000a905050505b81600260008373ffffffffffffffffffffffffffffffffffffffff1673ffffffffffffffffffffffffffffffffffffffff16815260200190815260200160002060008282546106f79190612713565b9250508190555060018060008373ffffffffffffffffffffffffffffffffffffffff1673ffffffffffffffffffffffffffffffffffffffff16815260200190815260200160002060006101000a81548160ff0219169083151502179055505050565b600d60009054906101000a900473ffffffffffffffffffffffffffffffffffffffff1673ffffffffffffffffffffffffffffffffffffffff163373ffffffffffffffffffffffffffffffffffffffff16146107e9576040517f08c379a00000000000000000000000000000000000000000000000000000000081526004016107e0906127b9565b60405180910390fd5b60008060008381526020019081526020016000209050600c546008546064836004015461081691906127d9565b610820919061284a565b1015610861576040517f08c379a0000000000000000000000000000000000000000000000000000000008152600401610858906128c7565b60405180910390fd5b600015158160060160009054906101000a900460ff161515146108b9576040517f08c379a00000000000000000000000000000000000000000000000000000000081526004016108b090612933565b60405180910390fd5b6009548211156108fe576040517f08c379a00000000000000000000000000000000000000000000000000000000081526004016108f59061299f565b60405180910390fd5b60018160060160006101000a81548160ff021916908315150217905550600160068381548110610931576109306129bf565b5b906000526020600020906007020160060160006101000a81548160ff02191690831515021790555061098b81600301548260020160009054906101000a900473ffffffffffffffffffffffffffffffffffffffff16611de8565b5050565b60026020528060005260406000206000915090505481565b60095481565b60006020528060005260406000206000915090508060000154908060010180546109d690612a1d565b80601f0160208091040260200160405190810160405280929190818152602001828054610a0290612a1d565b8015610a4f5780601f10610a2457610100808354040283529160200191610a4f565b820191906000526020600020905b815481529060010190602001808311610a3257829003601f168201915b5050505050908060020160009054906101000a900473ffffffffffffffffffffffffffffffffffffffff16908060030154908060040154908060050154908060060160009054906101000a900460ff16905087565b6001151560046000600d60009054906101000a900473ffffffffffffffffffffffffffffffffffffffff1673ffffffffffffffffffffffffffffffffffffffff1673ffffffffffffffffffffffffffffffffffffffff16815260200190815260200160002060003373ffffffffffffffffffffffffffffffffffffffff1673ffffffffffffffffffffffffffffffffffffffff16815260200190815260200160002060009054906101000a900460ff16151514610b96576040517f08c379a0000000000000000000000000000000000000000000000000000000008152600401610b8d90612a9a565b60405180910390fd5b6000600260003373ffffffffffffffffffffffffffffffffffffffff1673ffffffffffffffffffffffffffffffffffffffff1681526020019081526020016000205490506000600260003373ffffffffffffffffffffffffffffffffffffffff1673ffffffffffffffffffffffffffffffffffffffff16815260200190815260200160002081905550610c298133611de8565b50565b60075481565b60011515600160003373ffffffffffffffffffffffffffffffffffffffff1673ffffffffffffffffffffffffffffffffffffffff16815260200190815260200160002060009054906101000a900460ff16151514610cc5576040517f08c379a0000000000000000000000000000000000000000000000000000000008152600401610cbc906125b8565b60405180910390fd5b600854821115610d0a576040517f08c379a0000000000000000000000000000000000000000000000000000000008152600401610d0190612b06565b60405180910390fd5b6040518060e00160405280600954815260200185858080601f016020809104026020016040519081016040528093929190818152602001838380828437600081840152601f19601f8201169050808301925050505050505081526020018273ffffffffffffffffffffffffffffffffffffffff16815260200183815260200160008152602001600b5442610d9e9190612713565b8152602001600015158152506000806009548152602001908152602001600020600082015181600001556020820151816001019081610ddd9190612d01565b5060408201518160020160006101000a81548173ffffffffffffffffffffffffffffffffffffffff021916908373ffffffffffffffffffffffffffffffffffffffff160217905550606082015181600301556080820151816004015560a0820151816005015560c08201518160060160006101000a81548160ff0219169083151502179055509050506006600080600954815260200190815260200160002090806001815401808255809150506001900390600052602060002090600702016000909190919091506000820154816000015560018201816001019081610ec39190612de9565b506002820160009054906101000a900473ffffffffffffffffffffffffffffffffffffffff168160020160006101000a81548173ffffffffffffffffffffffffffffffffffffffff021916908373ffffffffffffffffffffffffffffffffffffffff1602179055506003820154816003015560048201548160040155600582015481600501556006820160009054906101000a900460ff168160060160006101000a81548160ff021916908315150217905550505060096000815480929190610f8b90612ed1565b919050555050505050565b60606006805480602002602001604051908101604052809291908181526020016000905b8282101561111757838290600052602060002090600702016040518060e001604052908160008201548152602001600182018054610ff790612a1d565b80601f016020809104026020016040519081016040528092919081815260200182805461102390612a1d565b80156110705780601f1061104557610100808354040283529160200191611070565b820191906000526020600020905b81548152906001019060200180831161105357829003601f168201915b505050505081526020016002820160009054906101000a900473ffffffffffffffffffffffffffffffffffffffff1673ffffffffffffffffffffffffffffffffffffffff1673ffffffffffffffffffffffffffffffffffffffff1681526020016003820154815260200160048201548152602001600582015481526020016006820160009054906101000a900460ff16151515158152505081526020019060010190610fba565b50505050905090565b60011515600160003373ffffffffffffffffffffffffffffffffffffffff1673ffffffffffffffffffffffffffffffffffffffff16815260200190815260200160002060009054906101000a900460ff161515146111b3576040517f08c379a00000000000000000000000000000000000000000000000000000000081526004016111aa906125b8565b60405180910390fd5b6009548111156111f8576040517f08c379a00000000000000000000000000000000000000000000000000000000081526004016111ef9061299f565b60405180910390fd5b60001515600360003373ffffffffffffffffffffffffffffffffffffffff1673ffffffffffffffffffffffffffffffffffffffff168152602001908152602001600020600083815260200190815260200160002060009054906101000a900460ff1615151461129c576040517f08c379a000000000000000000000000000000000000000000000000000000000815260040161129390612f65565b60405180910390fd5b426000808381526020019081526020016000206005015410156112f4576040517f08c379a00000000000000000000000000000000000000000000000000000000081526004016112eb90612fd1565b60405180910390fd5b600260003373ffffffffffffffffffffffffffffffffffffffff1673ffffffffffffffffffffffffffffffffffffffff1681526020019081526020016000205460008083815260200190815260200160002060040160008282546113589190612713565b925050819055506001600360003373ffffffffffffffffffffffffffffffffffffffff1673ffffffffffffffffffffffffffffffffffffffff168152602001908152602001600020600083815260200190815260200160002060006101000a81548160ff021916908315150217905550600260003373ffffffffffffffffffffffffffffffffffffffff1673ffffffffffffffffffffffffffffffffffffffff168152602001908152602001600020546006828154811061141c5761141b6129bf565b5b9060005260206000209060070201600401600082825461143c9190612713565b9250508190555050565b60011515600160003373ffffffffffffffffffffffffffffffffffffffff1673ffffffffffffffffffffffffffffffffffffffff16815260200190815260200160002060009054906101000a900460ff161515146114d9576040517f08c379a00000000000000000000000000000000000000000000000000000000081526004016114d0906125b8565b60405180910390fd5b600260003373ffffffffffffffffffffffffffffffffffffffff1673ffffffffffffffffffffffffffffffffffffffff1681526020019081526020016000205481111561155b576040517f08c379a000000000000000000000000000000000000000000000000000000000815260040161155290613089565b60405180910390fd5b8060085410156115a0576040517f08c379a000000000000000000000000000000000000000000000000000000000815260040161159790612690565b60405180910390fd5b80600260003373ffffffffffffffffffffffffffffffffffffffff1673ffffffffffffffffffffffffffffffffffffffff16815260200190815260200160002060008282546115ef91906126df565b925050819055506000600260003373ffffffffffffffffffffffffffffffffffffffff1673ffffffffffffffffffffffffffffffffffffffff168152602001908152602001600020540361168e5760001515600160003373ffffffffffffffffffffffffffffffffffffffff1673ffffffffffffffffffffffffffffffffffffffff16815260200190815260200160002060009054906101000a905050505b80600860008282546116a091906126df565b925050819055503373ffffffffffffffffffffffffffffffffffffffff166108fc829081150290604051600060405180830381858888f193505050501580156116ed573d6000803e3d6000fd5b5050565b60085481565b6006818154811061170757600080fd5b906000526020600020906007020160009150905080600001549080600101805461173090612a1d565b80601f016020809104026020016040519081016040528092919081815260200182805461175c90612a1d565b80156117a95780601f1061177e576101008083540402835291602001916117a9565b820191906000526020600020905b81548152906001019060200180831161178c57829003601f168201915b5050505050908060020160009054906101000a900473ffffffffffffffffffffffffffffffffffffffff16908060030154908060040154908060050154908060060160009054906101000a900460ff16905087565b60016020528060005260406000206000915054906101000a900460ff1681565b600d60009054906101000a900473ffffffffffffffffffffffffffffffffffffffff1673ffffffffffffffffffffffffffffffffffffffff163373ffffffffffffffffffffffffffffffffffffffff16146118ae576040517f08c379a00000000000000000000000000000000000000000000000000000000081526004016118a5906127b9565b60405180910390fd5b600060046000600d60009054906101000a900473ffffffffffffffffffffffffffffffffffffffff1673ffffffffffffffffffffffffffffffffffffffff1673ffffffffffffffffffffffffffffffffffffffff16815260200190815260200160002060008373ffffffffffffffffffffffffffffffffffffffff1673ffffffffffffffffffffffffffffffffffffffff16815260200190815260200160002060006101000a81548160ff02191690831515021790555050565b600a544211156119ad576040517f08c379a00000000000000000000000000000000000000000000000000000000081526004016119a4906130f5565b60405180910390fd5b600034116119f0576040517f08c379a00000000000000000000000000000000000000000000000000000000081526004016119e790613187565b60405180910390fd5b3460086000828254611a029190612713565b9250508190555060018060003373ffffffffffffffffffffffffffffffffffffffff1673ffffffffffffffffffffffffffffffffffffffff16815260200190815260200160002060006101000a81548160ff02191690831515021790555034600260003373ffffffffffffffffffffffffffffffffffffffff1673ffffffffffffffffffffffffffffffffffffffff1681526020019081526020016000206000828254611aaf9190612713565b925050819055503460076000828254611ac89190612713565b925050819055506000805b600580549050811015611b6d5760058181548110611af457611af36129bf565b5b9060005260206000200160009054906101000a900473ffffffffffffffffffffffffffffffffffffffff1673ffffffffffffffffffffffffffffffffffffffff163373ffffffffffffffffffffffffffffffffffffffff1603611b5a5760019150611b6d565b8080611b6590612ed1565b915050611ad3565b506000151581151503611bde576005339080600181540180825580915050600190039060005260206000200160009091909190916101000a81548173ffffffffffffffffffffffffffffffffffffffff021916908373ffffffffffffffffffffffffffffffffffffffff1602179055505b50565b60606005805480602002602001604051908101604052809291908181526020018280548015611c6557602002820191906000526020600020905b8160009054906101000a900473ffffffffffffffffffffffffffffffffffffffff1673ffffffffffffffffffffffffffffffffffffffff1681526020019060010190808311611c1b575b5050505050905090565b60046020528160005260406000206020528060005260406000206000915091509054906101000a900460ff1681565b600d60009054906101000a900473ffffffffffffffffffffffffffffffffffffffff1673ffffffffffffffffffffffffffffffffffffffff163373ffffffffffffffffffffffffffffffffffffffff1614611d2e576040517f08c379a0000000000000000000000000000000000000000000000000000000008152600401611d25906127b9565b60405180910390fd5b600160046000600d60009054906101000a900473ffffffffffffffffffffffffffffffffffffffff1673ffffffffffffffffffffffffffffffffffffffff1673ffffffffffffffffffffffffffffffffffffffff16815260200190815260200160002060008373ffffffffffffffffffffffffffffffffffffffff1673ffffffffffffffffffffffffffffffffffffffff16815260200190815260200160002060006101000a81548160ff02191690831515021790555050565b600854821115611e2d576040517f08c379a0000000000000000000000000000000000000000000000000000000008152600401611e2490612b06565b60405180910390fd5b8160086000828254611e3f91906126df565b925050819055508073ffffffffffffffffffffffffffffffffffffffff166108fc839081150290604051600060405180830381858888f19350505050158015611e8c573d6000803e3d6000fd5b505050565b600080fd5b600080fd5b6000819050919050565b611eae81611e9b565b8114611eb957600080fd5b50565b600081359050611ecb81611ea5565b92915050565b600073ffffffffffffffffffffffffffffffffffffffff82169050919050565b6000611efc82611ed1565b9050919050565b611f0c81611ef1565b8114611f1757600080fd5b50565b600081359050611f2981611f03565b92915050565b60008060408385031215611f4657611f45611e91565b5b6000611f5485828601611ebc565b9250506020611f6585828601611f1a565b9150509250929050565b600060208284031215611f8557611f84611e91565b5b6000611f9384828501611ebc565b91505092915050565b600060208284031215611fb257611fb1611e91565b5b6000611fc084828501611f1a565b91505092915050565b611fd281611e9b565b82525050565b6000602082019050611fed6000830184611fc9565b92915050565b600081519050919050565b600082825260208201905092915050565b60005b8381101561202d578082015181840152602081019050612012565b60008484015250505050565b6000601f19601f8301169050919050565b600061205582611ff3565b61205f8185611ffe565b935061206f81856020860161200f565b61207881612039565b840191505092915050565b600061208e82611ed1565b9050919050565b61209e81612083565b82525050565b60008115159050919050565b6120b9816120a4565b82525050565b600060e0820190506120d4600083018a611fc9565b81810360208301526120e6818961204a565b90506120f56040830188612095565b6121026060830187611fc9565b61210f6080830186611fc9565b61211c60a0830185611fc9565b61212960c08301846120b0565b98975050505050505050565b600080fd5b600080fd5b600080fd5b60008083601f84011261215a57612159612135565b5b8235905067ffffffffffffffff8111156121775761217661213a565b5b6020830191508360018202830111156121935761219261213f565b5b9250929050565b6121a381612083565b81146121ae57600080fd5b50565b6000813590506121c08161219a565b92915050565b600080600080606085870312156121e0576121df611e91565b5b600085013567ffffffffffffffff8111156121fe576121fd611e96565b5b61220a87828801612144565b9450945050602061221d87828801611ebc565b925050604061222e878288016121b1565b91505092959194509250565b600081519050919050565b600082825260208201905092915050565b6000819050602082019050919050565b61226f81611e9b565b82525050565b600082825260208201905092915050565b600061229182611ff3565b61229b8185612275565b93506122ab81856020860161200f565b6122b481612039565b840191505092915050565b6122c881612083565b82525050565b6122d7816120a4565b82525050565b600060e0830160008301516122f56000860182612266565b506020830151848203602086015261230d8282612286565b915050604083015161232260408601826122bf565b5060608301516123356060860182612266565b5060808301516123486080860182612266565b5060a083015161235b60a0860182612266565b5060c083015161236e60c08601826122ce565b508091505092915050565b600061238583836122dd565b905092915050565b6000602082019050919050565b60006123a58261223a565b6123af8185612245565b9350836020820285016123c185612256565b8060005b858110156123fd57848403895281516123de8582612379565b94506123e98361238d565b925060208a019950506001810190506123c5565b50829750879550505050505092915050565b60006020820190508181036000830152612429818461239a565b905092915050565b600060208201905061244660008301846120b0565b92915050565b600081519050919050565b600082825260208201905092915050565b6000819050602082019050919050565b61248181611ef1565b82525050565b60006124938383612478565b60208301905092915050565b6000602082019050919050565b60006124b78261244c565b6124c18185612457565b93506124cc83612468565b8060005b838110156124fd5781516124e48882612487565b97506124ef8361249f565b9250506001810190506124d0565b5085935050505092915050565b6000602082019050818103600083015261252481846124ac565b905092915050565b6000806040838503121561254357612542611e91565b5b600061255185828601611f1a565b925050602061256285828601611f1a565b9150509250929050565b7f596f7520617265206e6f7420616e20696e766573746f72000000000000000000600082015250565b60006125a2601783611ffe565b91506125ad8261256c565b602082019050919050565b600060208201905081810360008301526125d181612595565b9050919050565b7f496e73756666696563656e742066756e64730000000000000000000000000000600082015250565b600061260e601283611ffe565b9150612619826125d8565b602082019050919050565b6000602082019050818103600083015261263d81612601565b9050919050565b7f4e6f742073756666656369656e742066756e6473000000000000000000000000600082015250565b600061267a601483611ffe565b915061268582612644565b602082019050919050565b600060208201905081810360008301526126a98161266d565b9050919050565b7f4e487b7100000000000000000000000000000000000000000000000000000000600052601160045260246000fd5b60006126ea82611e9b565b91506126f583611e9b565b925082820390508181111561270d5761270c6126b0565b5b92915050565b600061271e82611e9b565b915061272983611e9b565b9250828201905080821115612741576127406126b0565b5b92915050565b7f4f6e6c79206d616e616765722063616e2065786563757465207468697320667560008201527f6e6374696f6e0000000000000000000000000000000000000000000000000000602082015250565b60006127a3602683611ffe565b91506127ae82612747565b604082019050919050565b600060208201905081810360008301526127d281612796565b9050919050565b60006127e482611e9b565b91506127ef83611e9b565b92508282026127fd81611e9b565b91508282048414831517612814576128136126b0565b5b5092915050565b7f4e487b7100000000000000000000000000000000000000000000000000000000600052601260045260246000fd5b600061285582611e9b565b915061286083611e9b565b9250826128705761286f61281b565b5b828204905092915050565b7f4e6f742067726561746572207468616e207468652071756f72756d0000000000600082015250565b60006128b1601b83611ffe565b91506128bc8261287b565b602082019050919050565b600060208201905081810360008301526128e0816128a4565b9050919050565b7f46756e647320686173206265656e20616c726561647920657865637574656400600082015250565b600061291d601f83611ffe565b9150612928826128e7565b602082019050919050565b6000602082019050818103600083015261294c81612910565b9050919050565b7f546869732070726f706f73616c20646f6573206e6f7420657869737400000000600082015250565b6000612989601c83611ffe565b915061299482612953565b602082019050919050565b600060208201905081810360008301526129b88161297c565b9050919050565b7f4e487b7100000000000000000000000000000000000000000000000000000000600052603260045260246000fd5b7f4e487b7100000000000000000000000000000000000000000000000000000000600052602260045260246000fd5b60006002820490506001821680612a3557607f821691505b602082108103612a4857612a476129ee565b5b50919050565b7f596f7520617265206e6f7420616c6c6f77656420746f20776974686472617700600082015250565b6000612a84601f83611ffe565b9150612a8f82612a4e565b602082019050919050565b60006020820190508181036000830152612ab381612a77565b9050919050565b7f496e7375666669656e63742066756e6473000000000000000000000000000000600082015250565b6000612af0601183611ffe565b9150612afb82612aba565b602082019050919050565b60006020820190508181036000830152612b1f81612ae3565b9050919050565b7f4e487b7100000000000000000000000000000000000000000000000000000000600052604160045260246000fd5b60008190508160005260206000209050919050565b60006020601f8301049050919050565b600082821b905092915050565b600060088302612bb77fffffffffffffffffffffffffffffffffffffffffffffffffffffffffffffffff82612b7a565b612bc18683612b7a565b95508019841693508086168417925050509392505050565b6000819050919050565b6000612bfe612bf9612bf484611e9b565b612bd9565b611e9b565b9050919050565b6000819050919050565b612c1883612be3565b612c2c612c2482612c05565b848454612b87565b825550505050565b600090565b612c41612c34565b612c4c818484612c0f565b505050565b5b81811015612c7057612c65600082612c39565b600181019050612c52565b5050565b601f821115612cb557612c8681612b55565b612c8f84612b6a565b81016020851015612c9e578190505b612cb2612caa85612b6a565b830182612c51565b50505b505050565b600082821c905092915050565b6000612cd860001984600802612cba565b1980831691505092915050565b6000612cf18383612cc7565b9150826002028217905092915050565b612d0a82611ff3565b67ffffffffffffffff811115612d2357612d22612b26565b5b612d2d8254612a1d565b612d38828285612c74565b600060209050601f831160018114612d6b5760008415612d59578287015190505b612d638582612ce5565b865550612dcb565b601f198416612d7986612b55565b60005b82811015612da157848901518255600182019150602085019450602081019050612d7c565b86831015612dbe5784890151612dba601f891682612cc7565b8355505b6001600288020188555050505b505050505050565b600081549050612de281612a1d565b9050919050565b818103612df7575050612ecf565b612e0082612dd3565b67ffffffffffffffff811115612e1957612e18612b26565b5b612e238254612a1d565b612e2e828285612c74565b6000601f831160018114612e5d5760008415612e4b578287015490505b612e558582612ce5565b865550612ec8565b601f198416612e6b87612b55565b9650612e7686612b55565b60005b82811015612e9e57848901548255600182019150600185019450602081019050612e79565b86831015612ebb5784890154612eb7601f891682612cc7565b8355505b6001600288020188555050505b5050505050505b565b6000612edc82611e9b565b91507fffffffffffffffffffffffffffffffffffffffffffffffffffffffffffffffff8203612f0e57612f0d6126b0565b5b600182019050919050565b7f596f75206861766520616c726561647920766f74656400000000000000000000600082015250565b6000612f4f601683611ffe565b9150612f5a82612f19565b602082019050919050565b60006020820190508181036000830152612f7e81612f42565b9050919050565b7f566f74696e672068617320656e64656400000000000000000000000000000000600082015250565b6000612fbb601083611ffe565b9150612fc682612f85565b602082019050919050565b60006020820190508181036000830152612fea81612fae565b9050919050565b7f416d6f756e7420796f7520656e746572656420697320696e76616c6964202c2060008201527f796f7520686176656e277420646f6e617465642074686973206d75636866756e60208201527f6473000000000000000000000000000000000000000000000000000000000000604082015250565b6000613073604283611ffe565b915061307e82612ff1565b606082019050919050565b600060208201905081810360008301526130a281613066565b9050919050565b7f436f6e74726962756974696f6e2068617320656e646564000000000000000000600082015250565b60006130df601783611ffe565b91506130ea826130a9565b602082019050919050565b6000602082019050818103600083015261310e816130d2565b9050919050565b7f496e766573746d656e7420616d6f756e742073686f756c64206265206772656160008201527f746572207468616e207a65726f00000000000000000000000000000000000000602082015250565b6000613171602d83611ffe565b915061317c82613115565b604082019050919050565b600060208201905081810360008301526131a081613164565b905091905056fea26469706673582212208edc4f64869a48dba2a2dcb41277e1499beea18ef5c452549301858d6d2d6eaf64736f6c63430008110033",
  "immutableReferences": {},
  "source": "\n// SPDX-License-Identifier: GPL-3.0\n\n\npragma solidity ^0.8.0;\n\ncontract Dao{\n  \n\n\n    struct Proposal{\n        uint causeId;\n        string causeDescription;\n        address payable recipient;\n        uint amount;\n        uint votes;\n        uint endTime;\n        bool isExecuted;\n    }\n\n    mapping(uint=>Proposal) public proposal;\n    mapping(address=>bool) public isInvestor ;  //where address is the address of the investors and bool if they have invested or not \n    mapping(address=>uint) public numOfShare; //If the address has inevsted than how much uint represents how much shares he has\n    mapping(address=>mapping(uint=>bool)) private isVoted; //To see if investor has already voted or not \n    mapping(address=>mapping(address=>bool)) public withdrwalStatus; //If some person wants to withdraw money\n\n    // address[] public investorList;\n    address[]  investorList;\n    Proposal[] public proposalList;\n\n    uint public totalShares;\n    uint public totalFunds;\n    uint public nextProposalId;\n    // uint public totalCollectedFunds;  //In Total funds collected up until date \n    // uint public participationTime;\n    // uint public voteTime;\n    // uint public quorum;  \n    // address public manager;\n     uint  participationTime;\n    uint  voteTime;\n    uint  quorum; \n    address  manager;\n\n    constructor (uint _participationTime,uint _voteTime,uint _quorum){\n        require(_quorum >0 && _quorum <100,\"The value of quorum should be between 0 and 10.\");\n        manager = msg.sender ;\n        participationTime = block.timestamp + _participationTime;\n        voteTime = _voteTime;\n        quorum = _quorum; \n    }\n\n    modifier owner{\n        require(msg.sender ==  manager,\"Only manager can execute this function\");\n        _;\n    }\n    modifier onlyInvestor{\n        require(isInvestor[msg.sender] == true,\"You are not an investor\" );\n        _;\n    }\n\n    function contribuition() external payable {  //1 wei = 1 share\n        require(block.timestamp <= participationTime,\"Contribuition has ended\");\n        require(msg.value > 0,\"Investment amount should be greater than zero\");\n        totalFunds += msg.value;\n        isInvestor[msg.sender] = true;\n        numOfShare[msg.sender]+= msg.value;\n        totalShares += msg.value;\n        bool alreadyInList = false;\n        for(uint i=0;i<investorList.length;i++){\n            if(msg.sender == investorList[i]){\n                alreadyInList = true;\n                break;\n            }\n        }\n        if(alreadyInList == false ){\n            investorList.push(msg.sender);\n        }\n           \n    }\n\n    function redeemShare(uint valueToRedeem)external payable onlyInvestor{ //for redeeming the shares\n        require(valueToRedeem<=numOfShare[msg.sender],\"Amount you entered is invalid , you haven't donated this muchfunds\");\n        require(totalFunds >= valueToRedeem,\"Not suffecient funds\");\n        numOfShare[msg.sender]-= valueToRedeem;\n        if(numOfShare[msg.sender]==0){\n            isInvestor[msg.sender]== false;\n        }\n        totalFunds -= valueToRedeem;\n       payable(msg.sender).transfer(valueToRedeem);\n    }\n\n    function transfershares(uint amount,address to)public onlyInvestor{\n        require(amount <= numOfShare[msg.sender],\"Insuffiecent funds\");\n        require(totalFunds >= amount,\"Not suffecient funds\");\n        numOfShare[msg.sender]-= amount;\n        if(numOfShare[msg.sender]==0){\n            isInvestor[msg.sender]== false;\n        }\n        numOfShare[to]+= amount;\n        isInvestor[to] = true; \n        // for(uint i=0;i<investorList.length;i++){   // SIR DIDN'T MADE THIS ONE BUT WHY \n        //     if(to != investorList[i]){\n        //         investorList.push(to);  \n        //     }\n        // }\n    }\n\n    function createProposal(string  calldata _causeDescriptoin,uint amount,address payable _recipient)public onlyInvestor {\n        require(amount <= totalFunds,\"Insuffienct funds\") ;\n        proposal[nextProposalId] = Proposal(nextProposalId,_causeDescriptoin,_recipient,amount,0,block.timestamp+voteTime,false);\n        proposalList.push(proposal[nextProposalId]);\n        nextProposalId++;\n    }\n\n    function voteProposal(uint _proposalId)public onlyInvestor {\n        require(_proposalId <= nextProposalId,\"This proposal does not exist\");\n        require(isVoted[msg.sender][_proposalId] == false,\"You have already voted\"); \n        require(proposal[_proposalId].endTime >= block.timestamp,\"Voting has ended\"); \n        // require(proposal[_proposalId].isExecuted == false,\"Funds has been transfered already\");\n        proposal[_proposalId].votes += numOfShare[msg.sender];\n        isVoted[msg.sender][_proposalId] = true;\n        proposalList[_proposalId].votes += numOfShare[msg.sender];\n\n    }\n\n    function executeProposal(uint proposalId)public  owner {\n        Proposal storage propose = proposal[proposalId];\n        require(((propose.votes*100)/totalFunds)>= quorum,\"Not greater than the quorum\");\n        require(propose.isExecuted ==false,\"Funds has been already executed\");    //Sir didn't include this statement\n        require(proposalId <= nextProposalId,\"This proposal does not exist\");     //Sir didn't include this statement  \n        propose.isExecuted = true;\n        proposalList[proposalId].isExecuted = true;\n        _transfer(propose.amount,propose.recipient);\n        // address  toSend = proposal[proposalId].recipient;\n        // payable(toSend).transfer(proposal[proposalId].amount);\n        // totalFunds -= proposal[proposalId].amount;   \n    }\n\n    function _transfer(uint amount, address payable to)internal{\n        require(amount <= totalFunds,\"Insuffienct funds\"); \n        totalFunds -= amount;\n        to.transfer(amount); \n    }\n\n    function allow(address to) public owner{\n        withdrwalStatus[manager][to] = true;\n    }\n     function disAllow(address to) public owner{\n        withdrwalStatus[manager][to] = false ;\n    }\n\n    function withdrawAllEther()public {\n        require(withdrwalStatus[manager][msg.sender] == true,\"You are not allowed to withdraw\");\n        // require(numOfShare[msg.sender]<= totalFunds,\"We don't have enough funds\");\n        uint amount = numOfShare[msg.sender];\n        numOfShare[msg.sender] = 0;\n        _transfer(amount,payable(msg.sender));\n\n    }\n    function ProposalList() public view returns(Proposal[] memory){\n        return proposalList;\n    }\n\n\n    function InvestorList()public view returns(address[] memory){\n        return investorList;\n    }\n}\n",
  "sourcePath": "/Users/gurkiratsingh/Desktop/delete/DAO-Dapp/contracts/DAO.sol",
  "compiler": {
    "name": "solc",
    "version": "0.8.17+commit.8df45f5f.Emscripten.clang"
  },
  "schemaVersion": "3.4.10",
  "updatedAt": "2023-11-04T08:55:33.312Z",
  "networkType": "ethereum",
  "devdoc": {
    "kind": "dev",
    "methods": {},
    "version": 1
  },
  "userdoc": {
    "kind": "user",
    "methods": {},
    "version": 1
  }
}