{
  "contractName": "Dao",
  "abi": [
    {
      "inputs": [
        {
          "internalType": "uint256",
          "name": "_participationTime",
          "type": "uint256"
        },
        {
          "internalType": "uint256",
          "name": "_voteTime",
          "type": "uint256"
        },
        {
          "internalType": "uint256",
          "name": "_quorum",
          "type": "uint256"
        }
      ],
      "stateMutability": "nonpayable",
      "type": "constructor"
    },
    {
      "inputs": [
        {
          "internalType": "address",
          "name": "",
          "type": "address"
        }
      ],
      "name": "isInvestor",
      "outputs": [
        {
          "internalType": "bool",
          "name": "",
          "type": "bool"
        }
      ],
      "stateMutability": "view",
      "type": "function",
      "constant": true
    },
    {
      "inputs": [],
      "name": "nextProposalId",
      "outputs": [
        {
          "internalType": "uint256",
          "name": "",
          "type": "uint256"
        }
      ],
      "stateMutability": "view",
      "type": "function",
      "constant": true
    },
    {
      "inputs": [
        {
          "internalType": "address",
          "name": "",
          "type": "address"
        }
      ],
      "name": "numOfShare",
      "outputs": [
        {
          "internalType": "uint256",
          "name": "",
          "type": "uint256"
        }
      ],
      "stateMutability": "view",
      "type": "function",
      "constant": true
    },
    {
      "inputs": [
        {
          "internalType": "uint256",
          "name": "",
          "type": "uint256"
        }
      ],
      "name": "proposal",
      "outputs": [
        {
          "internalType": "uint256",
          "name": "causeId",
          "type": "uint256"
        },
        {
          "internalType": "string",
          "name": "causeDescription",
          "type": "string"
        },
        {
          "internalType": "address payable",
          "name": "recipient",
          "type": "address"
        },
        {
          "internalType": "uint256",
          "name": "amount",
          "type": "uint256"
        },
        {
          "internalType": "uint256",
          "name": "votes",
          "type": "uint256"
        },
        {
          "internalType": "uint256",
          "name": "endTime",
          "type": "uint256"
        },
        {
          "internalType": "bool",
          "name": "isExecuted",
          "type": "bool"
        }
      ],
      "stateMutability": "view",
      "type": "function",
      "constant": true
    },
    {
      "inputs": [
        {
          "internalType": "uint256",
          "name": "",
          "type": "uint256"
        }
      ],
      "name": "proposalList",
      "outputs": [
        {
          "internalType": "uint256",
          "name": "causeId",
          "type": "uint256"
        },
        {
          "internalType": "string",
          "name": "causeDescription",
          "type": "string"
        },
        {
          "internalType": "address payable",
          "name": "recipient",
          "type": "address"
        },
        {
          "internalType": "uint256",
          "name": "amount",
          "type": "uint256"
        },
        {
          "internalType": "uint256",
          "name": "votes",
          "type": "uint256"
        },
        {
          "internalType": "uint256",
          "name": "endTime",
          "type": "uint256"
        },
        {
          "internalType": "bool",
          "name": "isExecuted",
          "type": "bool"
        }
      ],
      "stateMutability": "view",
      "type": "function",
      "constant": true
    },
    {
      "inputs": [],
      "name": "totalFunds",
      "outputs": [
        {
          "internalType": "uint256",
          "name": "",
          "type": "uint256"
        }
      ],
      "stateMutability": "view",
      "type": "function",
      "constant": true
    },
    {
      "inputs": [],
      "name": "totalShares",
      "outputs": [
        {
          "internalType": "uint256",
          "name": "",
          "type": "uint256"
        }
      ],
      "stateMutability": "view",
      "type": "function",
      "constant": true
    },
    {
      "inputs": [
        {
          "internalType": "address",
          "name": "",
          "type": "address"
        },
        {
          "internalType": "address",
          "name": "",
          "type": "address"
        }
      ],
      "name": "withdrwalStatus",
      "outputs": [
        {
          "internalType": "bool",
          "name": "",
          "type": "bool"
        }
      ],
      "stateMutability": "view",
      "type": "function",
      "constant": true
    },
    {
      "inputs": [],
      "name": "contribuition",
      "outputs": [],
      "stateMutability": "payable",
      "type": "function",
      "payable": true
    },
    {
      "inputs": [
        {
          "internalType": "uint256",
          "name": "valueToRedeem",
          "type": "uint256"
        }
      ],
      "name": "redeemShare",
      "outputs": [],
      "stateMutability": "payable",
      "type": "function",
      "payable": true
    },
    {
      "inputs": [
        {
          "internalType": "uint256",
          "name": "amount",
          "type": "uint256"
        },
        {
          "internalType": "address",
          "name": "to",
          "type": "address"
        }
      ],
      "name": "transfershares",
      "outputs": [],
      "stateMutability": "nonpayable",
      "type": "function"
    },
    {
      "inputs": [
        {
          "internalType": "string",
          "name": "_causeDescriptoin",
          "type": "string"
        },
        {
          "internalType": "uint256",
          "name": "amount",
          "type": "uint256"
        },
        {
          "internalType": "address payable",
          "name": "_recipient",
          "type": "address"
        }
      ],
      "name": "createProposal",
      "outputs": [],
      "stateMutability": "nonpayable",
      "type": "function"
    },
    {
      "inputs": [
        {
          "internalType": "uint256",
          "name": "_proposalId",
          "type": "uint256"
        }
      ],
      "name": "voteProposal",
      "outputs": [],
      "stateMutability": "nonpayable",
      "type": "function"
    },
    {
      "inputs": [
        {
          "internalType": "uint256",
          "name": "proposalId",
          "type": "uint256"
        }
      ],
      "name": "executeProposal",
      "outputs": [],
      "stateMutability": "nonpayable",
      "type": "function"
    },
    {
      "inputs": [
        {
          "internalType": "address",
          "name": "to",
          "type": "address"
        }
      ],
      "name": "allow",
      "outputs": [],
      "stateMutability": "nonpayable",
      "type": "function"
    },
    {
      "inputs": [
        {
          "internalType": "address",
          "name": "to",
          "type": "address"
        }
      ],
      "name": "disAllow",
      "outputs": [],
      "stateMutability": "nonpayable",
      "type": "function"
    },
    {
      "inputs": [],
      "name": "withdrawEther",
      "outputs": [],
      "stateMutability": "nonpayable",
      "type": "function"
    },
    {
      "inputs": [],
      "name": "ProposalList",
      "outputs": [
        {
          "components": [
            {
              "internalType": "uint256",
              "name": "causeId",
              "type": "uint256"
            },
            {
              "internalType": "string",
              "name": "causeDescription",
              "type": "string"
            },
            {
              "internalType": "address payable",
              "name": "recipient",
              "type": "address"
            },
            {
              "internalType": "uint256",
              "name": "amount",
              "type": "uint256"
            },
            {
              "internalType": "uint256",
              "name": "votes",
              "type": "uint256"
            },
            {
              "internalType": "uint256",
              "name": "endTime",
              "type": "uint256"
            },
            {
              "internalType": "bool",
              "name": "isExecuted",
              "type": "bool"
            }
          ],
          "internalType": "struct Dao.Proposal[]",
          "name": "",
          "type": "tuple[]"
        }
      ],
      "stateMutability": "view",
      "type": "function",
      "constant": true
    },
    {
      "inputs": [],
      "name": "InvestorList",
      "outputs": [
        {
          "internalType": "address[]",
          "name": "",
          "type": "address[]"
        }
      ],
      "stateMutability": "view",
      "type": "function",
      "constant": true
    }
  ],
  "bytecode": "0x60806040523480156200001157600080fd5b50604051620034ef380380620034ef833981810160405281019062000037919062000136565b600081118015620000485750606481105b6200008a576040517f08c379a0000000000000000000000000000000000000000000000000000000008152600401620000819062000219565b60405180910390fd5b33600d60006101000a81548173ffffffffffffffffffffffffffffffffffffffff021916908373ffffffffffffffffffffffffffffffffffffffff1602179055508242620000d991906200026a565b600a8190555081600b8190555080600c81905550505050620002a5565b600080fd5b6000819050919050565b6200011081620000fb565b81146200011c57600080fd5b50565b600081519050620001308162000105565b92915050565b600080600060608486031215620001525762000151620000f6565b5b600062000162868287016200011f565b935050602062000175868287016200011f565b925050604062000188868287016200011f565b9150509250925092565b600082825260208201905092915050565b7f5468652076616c7565206f662071756f72756d2073686f756c6420626520626560008201527f747765656e203020616e642031302e0000000000000000000000000000000000602082015250565b600062000201602f8362000192565b91506200020e82620001a3565b604082019050919050565b600060208201905081810360008301526200023481620001f2565b9050919050565b7f4e487b7100000000000000000000000000000000000000000000000000000000600052601160045260246000fd5b60006200027782620000fb565b91506200028483620000fb565b92508282019050808211156200029f576200029e6200023b565b5b92915050565b61323a80620002b56000396000f3fe6080604052600436106101145760003560e01c8063807896d5116100a0578063cf8aacdd11610064578063cf8aacdd1461039c578063d0197f27146103c5578063df18b7f4146103cf578063f242b772146103fa578063ff9913e81461043757610114565b8063807896d5146102ac578063868643df146102d5578063968ed600146102f1578063c6311e3f1461031c578063cee2a9cf1461035f57610114565b806330326c17116100e757806330326c17146101d35780633a98ef39146102165780636ac1e01f146102415780636dfc10991461026a5780637362377b1461029557610114565b80630b0d56c6146101195780630d61b5191461014257806323c2f7251461016b5780632ab09d14146101a8575b600080fd5b34801561012557600080fd5b50610140600480360381019061013b9190611f20565b610460565b005b34801561014e57600080fd5b5061016960048036038101906101649190611f60565b610759565b005b34801561017757600080fd5b50610192600480360381019061018d9190611f8d565b61098f565b60405161019f9190611fc9565b60405180910390f35b3480156101b457600080fd5b506101bd6109a7565b6040516101ca9190611fc9565b60405180910390f35b3480156101df57600080fd5b506101fa60048036038101906101f59190611f60565b6109ad565b60405161020d97969594939291906120b0565b60405180910390f35b34801561022257600080fd5b5061022b610aa4565b6040516102389190611fc9565b60405180910390f35b34801561024d57600080fd5b50610268600480360381019061026391906121b7565b610aaa565b005b34801561027657600080fd5b5061027f610d7b565b60405161028c9190612400565b60405180910390f35b3480156102a157600080fd5b506102aa610f05565b005b3480156102b857600080fd5b506102d360048036038101906102ce9190611f60565b611111565b005b6102ef60048036038101906102ea9190611f60565b611437565b005b3480156102fd57600080fd5b506103066116e2565b6040516103139190611fc9565b60405180910390f35b34801561032857600080fd5b50610343600480360381019061033e9190611f60565b6116e8565b60405161035697969594939291906120b0565b60405180910390f35b34801561036b57600080fd5b5061038660048036038101906103819190611f8d565b6117ef565b6040516103939190612422565b60405180910390f35b3480156103a857600080fd5b506103c360048036038101906103be9190611f8d565b61180f565b005b6103cd611959565b005b3480156103db57600080fd5b506103e4611bd2565b6040516103f191906124fb565b60405180910390f35b34801561040657600080fd5b50610421600480360381019061041c919061251d565b611c60565b60405161042e9190612422565b60405180910390f35b34801561044357600080fd5b5061045e60048036038101906104599190611f8d565b611c8f565b005b60011515600160003373ffffffffffffffffffffffffffffffffffffffff1673ffffffffffffffffffffffffffffffffffffffff16815260200190815260200160002060009054906101000a900460ff161515146104f3576040517f08c379a00000000000000000000000000000000000000000000000000000000081526004016104ea906125a9565b60405180910390fd5b600260003373ffffffffffffffffffffffffffffffffffffffff1673ffffffffffffffffffffffffffffffffffffffff16815260200190815260200160002054821115610575576040517f08c379a000000000000000000000000000000000000000000000000000000000815260040161056c90612615565b60405180910390fd5b8160085410156105ba576040517f08c379a00000000000000000000000000000000000000000000000000000000081526004016105b190612681565b60405180910390fd5b81600260003373ffffffffffffffffffffffffffffffffffffffff1673ffffffffffffffffffffffffffffffffffffffff168152602001908152602001600020600082825461060991906126d0565b925050819055506000600260003373ffffffffffffffffffffffffffffffffffffffff1673ffffffffffffffffffffffffffffffffffffffff16815260200190815260200160002054036106a85760001515600160003373ffffffffffffffffffffffffffffffffffffffff1673ffffffffffffffffffffffffffffffffffffffff16815260200190815260200160002060009054906101000a905050505b81600260008373ffffffffffffffffffffffffffffffffffffffff1673ffffffffffffffffffffffffffffffffffffffff16815260200190815260200160002060008282546106f79190612704565b9250508190555060018060008373ffffffffffffffffffffffffffffffffffffffff1673ffffffffffffffffffffffffffffffffffffffff16815260200190815260200160002060006101000a81548160ff0219169083151502179055505050565b600d60009054906101000a900473ffffffffffffffffffffffffffffffffffffffff1673ffffffffffffffffffffffffffffffffffffffff163373ffffffffffffffffffffffffffffffffffffffff16146107e9576040517f08c379a00000000000000000000000000000000000000000000000000000000081526004016107e0906127aa565b60405180910390fd5b60008060008381526020019081526020016000209050600c546008546064836004015461081691906127ca565b610820919061283b565b1015610861576040517f08c379a0000000000000000000000000000000000000000000000000000000008152600401610858906128b8565b60405180910390fd5b600015158160060160009054906101000a900460ff161515146108b9576040517f08c379a00000000000000000000000000000000000000000000000000000000081526004016108b090612924565b60405180910390fd5b6009548211156108fe576040517f08c379a00000000000000000000000000000000000000000000000000000000081526004016108f590612990565b60405180910390fd5b60018160060160006101000a81548160ff021916908315150217905550600160068381548110610931576109306129b0565b5b906000526020600020906007020160060160006101000a81548160ff02191690831515021790555061098b81600301548260020160009054906101000a900473ffffffffffffffffffffffffffffffffffffffff16611dd9565b5050565b60026020528060005260406000206000915090505481565b60095481565b60006020528060005260406000206000915090508060000154908060010180546109d690612a0e565b80601f0160208091040260200160405190810160405280929190818152602001828054610a0290612a0e565b8015610a4f5780601f10610a2457610100808354040283529160200191610a4f565b820191906000526020600020905b815481529060010190602001808311610a3257829003601f168201915b5050505050908060020160009054906101000a900473ffffffffffffffffffffffffffffffffffffffff16908060030154908060040154908060050154908060060160009054906101000a900460ff16905087565b60075481565b600854821115610aef576040517f08c379a0000000000000000000000000000000000000000000000000000000008152600401610ae690612a8b565b60405180910390fd5b6040518060e00160405280600954815260200185858080601f016020809104026020016040519081016040528093929190818152602001838380828437600081840152601f19601f8201169050808301925050505050505081526020018273ffffffffffffffffffffffffffffffffffffffff16815260200183815260200160008152602001600b5442610b839190612704565b8152602001600015158152506000806009548152602001908152602001600020600082015181600001556020820151816001019081610bc29190612c86565b5060408201518160020160006101000a81548173ffffffffffffffffffffffffffffffffffffffff021916908373ffffffffffffffffffffffffffffffffffffffff160217905550606082015181600301556080820151816004015560a0820151816005015560c08201518160060160006101000a81548160ff0219169083151502179055509050506006600080600954815260200190815260200160002090806001815401808255809150506001900390600052602060002090600702016000909190919091506000820154816000015560018201816001019081610ca89190612d6e565b506002820160009054906101000a900473ffffffffffffffffffffffffffffffffffffffff168160020160006101000a81548173ffffffffffffffffffffffffffffffffffffffff021916908373ffffffffffffffffffffffffffffffffffffffff1602179055506003820154816003015560048201548160040155600582015481600501556006820160009054906101000a900460ff168160060160006101000a81548160ff021916908315150217905550505060096000815480929190610d7090612e56565b919050555050505050565b60606006805480602002602001604051908101604052809291908181526020016000905b82821015610efc57838290600052602060002090600702016040518060e001604052908160008201548152602001600182018054610ddc90612a0e565b80601f0160208091040260200160405190810160405280929190818152602001828054610e0890612a0e565b8015610e555780601f10610e2a57610100808354040283529160200191610e55565b820191906000526020600020905b815481529060010190602001808311610e3857829003601f168201915b505050505081526020016002820160009054906101000a900473ffffffffffffffffffffffffffffffffffffffff1673ffffffffffffffffffffffffffffffffffffffff1673ffffffffffffffffffffffffffffffffffffffff1681526020016003820154815260200160048201548152602001600582015481526020016006820160009054906101000a900460ff16151515158152505081526020019060010190610d9f565b50505050905090565b6001151560046000600d60009054906101000a900473ffffffffffffffffffffffffffffffffffffffff1673ffffffffffffffffffffffffffffffffffffffff1673ffffffffffffffffffffffffffffffffffffffff16815260200190815260200160002060003373ffffffffffffffffffffffffffffffffffffffff1673ffffffffffffffffffffffffffffffffffffffff16815260200190815260200160002060009054906101000a900460ff16151514610ff7576040517f08c379a0000000000000000000000000000000000000000000000000000000008152600401610fee90612eea565b60405180910390fd5b600854600260003373ffffffffffffffffffffffffffffffffffffffff1673ffffffffffffffffffffffffffffffffffffffff16815260200190815260200160002054111561107b576040517f08c379a000000000000000000000000000000000000000000000000000000000815260040161107290612f56565b60405180910390fd5b6000600260003373ffffffffffffffffffffffffffffffffffffffff1673ffffffffffffffffffffffffffffffffffffffff1681526020019081526020016000205490506000600260003373ffffffffffffffffffffffffffffffffffffffff1673ffffffffffffffffffffffffffffffffffffffff1681526020019081526020016000208190555061110e8133611dd9565b50565b60011515600160003373ffffffffffffffffffffffffffffffffffffffff1673ffffffffffffffffffffffffffffffffffffffff16815260200190815260200160002060009054906101000a900460ff161515146111a4576040517f08c379a000000000000000000000000000000000000000000000000000000000815260040161119b906125a9565b60405180910390fd5b6009548111156111e9576040517f08c379a00000000000000000000000000000000000000000000000000000000081526004016111e090612990565b60405180910390fd5b60001515600360003373ffffffffffffffffffffffffffffffffffffffff1673ffffffffffffffffffffffffffffffffffffffff168152602001908152602001600020600083815260200190815260200160002060009054906101000a900460ff1615151461128d576040517f08c379a000000000000000000000000000000000000000000000000000000000815260040161128490612fc2565b60405180910390fd5b426000808381526020019081526020016000206005015410156112e5576040517f08c379a00000000000000000000000000000000000000000000000000000000081526004016112dc9061302e565b60405180910390fd5b600260003373ffffffffffffffffffffffffffffffffffffffff1673ffffffffffffffffffffffffffffffffffffffff1681526020019081526020016000205460008083815260200190815260200160002060040160008282546113499190612704565b925050819055506001600360003373ffffffffffffffffffffffffffffffffffffffff1673ffffffffffffffffffffffffffffffffffffffff168152602001908152602001600020600083815260200190815260200160002060006101000a81548160ff021916908315150217905550600260003373ffffffffffffffffffffffffffffffffffffffff1673ffffffffffffffffffffffffffffffffffffffff168152602001908152602001600020546006828154811061140d5761140c6129b0565b5b9060005260206000209060070201600401600082825461142d9190612704565b9250508190555050565b60011515600160003373ffffffffffffffffffffffffffffffffffffffff1673ffffffffffffffffffffffffffffffffffffffff16815260200190815260200160002060009054906101000a900460ff161515146114ca576040517f08c379a00000000000000000000000000000000000000000000000000000000081526004016114c1906125a9565b60405180910390fd5b600260003373ffffffffffffffffffffffffffffffffffffffff1673ffffffffffffffffffffffffffffffffffffffff1681526020019081526020016000205481111561154c576040517f08c379a0000000000000000000000000000000000000000000000000000000008152600401611543906130e6565b60405180910390fd5b806008541015611591576040517f08c379a000000000000000000000000000000000000000000000000000000000815260040161158890612681565b60405180910390fd5b80600260003373ffffffffffffffffffffffffffffffffffffffff1673ffffffffffffffffffffffffffffffffffffffff16815260200190815260200160002060008282546115e091906126d0565b925050819055506000600260003373ffffffffffffffffffffffffffffffffffffffff1673ffffffffffffffffffffffffffffffffffffffff168152602001908152602001600020540361167f5760001515600160003373ffffffffffffffffffffffffffffffffffffffff1673ffffffffffffffffffffffffffffffffffffffff16815260200190815260200160002060009054906101000a905050505b806008600082825461169191906126d0565b925050819055503373ffffffffffffffffffffffffffffffffffffffff166108fc829081150290604051600060405180830381858888f193505050501580156116de573d6000803e3d6000fd5b5050565b60085481565b600681815481106116f857600080fd5b906000526020600020906007020160009150905080600001549080600101805461172190612a0e565b80601f016020809104026020016040519081016040528092919081815260200182805461174d90612a0e565b801561179a5780601f1061176f5761010080835404028352916020019161179a565b820191906000526020600020905b81548152906001019060200180831161177d57829003601f168201915b5050505050908060020160009054906101000a900473ffffffffffffffffffffffffffffffffffffffff16908060030154908060040154908060050154908060060160009054906101000a900460ff16905087565b60016020528060005260406000206000915054906101000a900460ff1681565b600d60009054906101000a900473ffffffffffffffffffffffffffffffffffffffff1673ffffffffffffffffffffffffffffffffffffffff163373ffffffffffffffffffffffffffffffffffffffff161461189f576040517f08c379a0000000000000000000000000000000000000000000000000000000008152600401611896906127aa565b60405180910390fd5b600060046000600d60009054906101000a900473ffffffffffffffffffffffffffffffffffffffff1673ffffffffffffffffffffffffffffffffffffffff1673ffffffffffffffffffffffffffffffffffffffff16815260200190815260200160002060008373ffffffffffffffffffffffffffffffffffffffff1673ffffffffffffffffffffffffffffffffffffffff16815260200190815260200160002060006101000a81548160ff02191690831515021790555050565b600a5442111561199e576040517f08c379a000000000000000000000000000000000000000000000000000000000815260040161199590613152565b60405180910390fd5b600034116119e1576040517f08c379a00000000000000000000000000000000000000000000000000000000081526004016119d8906131e4565b60405180910390fd5b34600860008282546119f39190612704565b9250508190555060018060003373ffffffffffffffffffffffffffffffffffffffff1673ffffffffffffffffffffffffffffffffffffffff16815260200190815260200160002060006101000a81548160ff02191690831515021790555034600260003373ffffffffffffffffffffffffffffffffffffffff1673ffffffffffffffffffffffffffffffffffffffff1681526020019081526020016000206000828254611aa09190612704565b925050819055503460076000828254611ab99190612704565b925050819055506000805b600580549050811015611b5e5760058181548110611ae557611ae46129b0565b5b9060005260206000200160009054906101000a900473ffffffffffffffffffffffffffffffffffffffff1673ffffffffffffffffffffffffffffffffffffffff163373ffffffffffffffffffffffffffffffffffffffff1603611b4b5760019150611b5e565b8080611b5690612e56565b915050611ac4565b506000151581151503611bcf576005339080600181540180825580915050600190039060005260206000200160009091909190916101000a81548173ffffffffffffffffffffffffffffffffffffffff021916908373ffffffffffffffffffffffffffffffffffffffff1602179055505b50565b60606005805480602002602001604051908101604052809291908181526020018280548015611c5657602002820191906000526020600020905b8160009054906101000a900473ffffffffffffffffffffffffffffffffffffffff1673ffffffffffffffffffffffffffffffffffffffff1681526020019060010190808311611c0c575b5050505050905090565b60046020528160005260406000206020528060005260406000206000915091509054906101000a900460ff1681565b600d60009054906101000a900473ffffffffffffffffffffffffffffffffffffffff1673ffffffffffffffffffffffffffffffffffffffff163373ffffffffffffffffffffffffffffffffffffffff1614611d1f576040517f08c379a0000000000000000000000000000000000000000000000000000000008152600401611d16906127aa565b60405180910390fd5b600160046000600d60009054906101000a900473ffffffffffffffffffffffffffffffffffffffff1673ffffffffffffffffffffffffffffffffffffffff1673ffffffffffffffffffffffffffffffffffffffff16815260200190815260200160002060008373ffffffffffffffffffffffffffffffffffffffff1673ffffffffffffffffffffffffffffffffffffffff16815260200190815260200160002060006101000a81548160ff02191690831515021790555050565b600854821115611e1e576040517f08c379a0000000000000000000000000000000000000000000000000000000008152600401611e1590612a8b565b60405180910390fd5b8160086000828254611e3091906126d0565b925050819055508073ffffffffffffffffffffffffffffffffffffffff166108fc839081150290604051600060405180830381858888f19350505050158015611e7d573d6000803e3d6000fd5b505050565b600080fd5b600080fd5b6000819050919050565b611e9f81611e8c565b8114611eaa57600080fd5b50565b600081359050611ebc81611e96565b92915050565b600073ffffffffffffffffffffffffffffffffffffffff82169050919050565b6000611eed82611ec2565b9050919050565b611efd81611ee2565b8114611f0857600080fd5b50565b600081359050611f1a81611ef4565b92915050565b60008060408385031215611f3757611f36611e82565b5b6000611f4585828601611ead565b9250506020611f5685828601611f0b565b9150509250929050565b600060208284031215611f7657611f75611e82565b5b6000611f8484828501611ead565b91505092915050565b600060208284031215611fa357611fa2611e82565b5b6000611fb184828501611f0b565b91505092915050565b611fc381611e8c565b82525050565b6000602082019050611fde6000830184611fba565b92915050565b600081519050919050565b600082825260208201905092915050565b60005b8381101561201e578082015181840152602081019050612003565b60008484015250505050565b6000601f19601f8301169050919050565b600061204682611fe4565b6120508185611fef565b9350612060818560208601612000565b6120698161202a565b840191505092915050565b600061207f82611ec2565b9050919050565b61208f81612074565b82525050565b60008115159050919050565b6120aa81612095565b82525050565b600060e0820190506120c5600083018a611fba565b81810360208301526120d7818961203b565b90506120e66040830188612086565b6120f36060830187611fba565b6121006080830186611fba565b61210d60a0830185611fba565b61211a60c08301846120a1565b98975050505050505050565b600080fd5b600080fd5b600080fd5b60008083601f84011261214b5761214a612126565b5b8235905067ffffffffffffffff8111156121685761216761212b565b5b60208301915083600182028301111561218457612183612130565b5b9250929050565b61219481612074565b811461219f57600080fd5b50565b6000813590506121b18161218b565b92915050565b600080600080606085870312156121d1576121d0611e82565b5b600085013567ffffffffffffffff8111156121ef576121ee611e87565b5b6121fb87828801612135565b9450945050602061220e87828801611ead565b925050604061221f878288016121a2565b91505092959194509250565b600081519050919050565b600082825260208201905092915050565b6000819050602082019050919050565b61226081611e8c565b82525050565b600082825260208201905092915050565b600061228282611fe4565b61228c8185612266565b935061229c818560208601612000565b6122a58161202a565b840191505092915050565b6122b981612074565b82525050565b6122c881612095565b82525050565b600060e0830160008301516122e66000860182612257565b50602083015184820360208601526122fe8282612277565b915050604083015161231360408601826122b0565b5060608301516123266060860182612257565b5060808301516123396080860182612257565b5060a083015161234c60a0860182612257565b5060c083015161235f60c08601826122bf565b508091505092915050565b600061237683836122ce565b905092915050565b6000602082019050919050565b60006123968261222b565b6123a08185612236565b9350836020820285016123b285612247565b8060005b858110156123ee57848403895281516123cf858261236a565b94506123da8361237e565b925060208a019950506001810190506123b6565b50829750879550505050505092915050565b6000602082019050818103600083015261241a818461238b565b905092915050565b600060208201905061243760008301846120a1565b92915050565b600081519050919050565b600082825260208201905092915050565b6000819050602082019050919050565b61247281611ee2565b82525050565b60006124848383612469565b60208301905092915050565b6000602082019050919050565b60006124a88261243d565b6124b28185612448565b93506124bd83612459565b8060005b838110156124ee5781516124d58882612478565b97506124e083612490565b9250506001810190506124c1565b5085935050505092915050565b60006020820190508181036000830152612515818461249d565b905092915050565b6000806040838503121561253457612533611e82565b5b600061254285828601611f0b565b925050602061255385828601611f0b565b9150509250929050565b7f596f7520617265206e6f7420616e20696e766573746f72000000000000000000600082015250565b6000612593601783611fef565b915061259e8261255d565b602082019050919050565b600060208201905081810360008301526125c281612586565b9050919050565b7f496e73756666696563656e742066756e64730000000000000000000000000000600082015250565b60006125ff601283611fef565b915061260a826125c9565b602082019050919050565b6000602082019050818103600083015261262e816125f2565b9050919050565b7f4e6f742073756666656369656e742066756e6473000000000000000000000000600082015250565b600061266b601483611fef565b915061267682612635565b602082019050919050565b6000602082019050818103600083015261269a8161265e565b9050919050565b7f4e487b7100000000000000000000000000000000000000000000000000000000600052601160045260246000fd5b60006126db82611e8c565b91506126e683611e8c565b92508282039050818111156126fe576126fd6126a1565b5b92915050565b600061270f82611e8c565b915061271a83611e8c565b9250828201905080821115612732576127316126a1565b5b92915050565b7f4f6e6c79206d616e616765722063616e2065786563757465207468697320667560008201527f6e6374696f6e0000000000000000000000000000000000000000000000000000602082015250565b6000612794602683611fef565b915061279f82612738565b604082019050919050565b600060208201905081810360008301526127c381612787565b9050919050565b60006127d582611e8c565b91506127e083611e8c565b92508282026127ee81611e8c565b91508282048414831517612805576128046126a1565b5b5092915050565b7f4e487b7100000000000000000000000000000000000000000000000000000000600052601260045260246000fd5b600061284682611e8c565b915061285183611e8c565b9250826128615761286061280c565b5b828204905092915050565b7f4e6f742067726561746572207468616e207468652071756f72756d0000000000600082015250565b60006128a2601b83611fef565b91506128ad8261286c565b602082019050919050565b600060208201905081810360008301526128d181612895565b9050919050565b7f46756e647320686173206265656e20616c726561647920657865637574656400600082015250565b600061290e601f83611fef565b9150612919826128d8565b602082019050919050565b6000602082019050818103600083015261293d81612901565b9050919050565b7f546869732070726f706f73616c20646f6573206e6f7420657869737400000000600082015250565b600061297a601c83611fef565b915061298582612944565b602082019050919050565b600060208201905081810360008301526129a98161296d565b9050919050565b7f4e487b7100000000000000000000000000000000000000000000000000000000600052603260045260246000fd5b7f4e487b7100000000000000000000000000000000000000000000000000000000600052602260045260246000fd5b60006002820490506001821680612a2657607f821691505b602082108103612a3957612a386129df565b5b50919050565b7f496e7375666669656e63742066756e6473000000000000000000000000000000600082015250565b6000612a75601183611fef565b9150612a8082612a3f565b602082019050919050565b60006020820190508181036000830152612aa481612a68565b9050919050565b7f4e487b7100000000000000000000000000000000000000000000000000000000600052604160045260246000fd5b60008190508160005260206000209050919050565b60006020601f8301049050919050565b600082821b905092915050565b600060088302612b3c7fffffffffffffffffffffffffffffffffffffffffffffffffffffffffffffffff82612aff565b612b468683612aff565b95508019841693508086168417925050509392505050565b6000819050919050565b6000612b83612b7e612b7984611e8c565b612b5e565b611e8c565b9050919050565b6000819050919050565b612b9d83612b68565b612bb1612ba982612b8a565b848454612b0c565b825550505050565b600090565b612bc6612bb9565b612bd1818484612b94565b505050565b5b81811015612bf557612bea600082612bbe565b600181019050612bd7565b5050565b601f821115612c3a57612c0b81612ada565b612c1484612aef565b81016020851015612c23578190505b612c37612c2f85612aef565b830182612bd6565b50505b505050565b600082821c905092915050565b6000612c5d60001984600802612c3f565b1980831691505092915050565b6000612c768383612c4c565b9150826002028217905092915050565b612c8f82611fe4565b67ffffffffffffffff811115612ca857612ca7612aab565b5b612cb28254612a0e565b612cbd828285612bf9565b600060209050601f831160018114612cf05760008415612cde578287015190505b612ce88582612c6a565b865550612d50565b601f198416612cfe86612ada565b60005b82811015612d2657848901518255600182019150602085019450602081019050612d01565b86831015612d435784890151612d3f601f891682612c4c565b8355505b6001600288020188555050505b505050505050565b600081549050612d6781612a0e565b9050919050565b818103612d7c575050612e54565b612d8582612d58565b67ffffffffffffffff811115612d9e57612d9d612aab565b5b612da88254612a0e565b612db3828285612bf9565b6000601f831160018114612de25760008415612dd0578287015490505b612dda8582612c6a565b865550612e4d565b601f198416612df087612ada565b9650612dfb86612ada565b60005b82811015612e2357848901548255600182019150600185019450602081019050612dfe565b86831015612e405784890154612e3c601f891682612c4c565b8355505b6001600288020188555050505b5050505050505b565b6000612e6182611e8c565b91507fffffffffffffffffffffffffffffffffffffffffffffffffffffffffffffffff8203612e9357612e926126a1565b5b600182019050919050565b7f596f7520617265206e6f7420616c6c6f77656420746f20776974686472617700600082015250565b6000612ed4601f83611fef565b9150612edf82612e9e565b602082019050919050565b60006020820190508181036000830152612f0381612ec7565b9050919050565b7f576520646f6e2774206861766520656e6f7567682066756e6473000000000000600082015250565b6000612f40601a83611fef565b9150612f4b82612f0a565b602082019050919050565b60006020820190508181036000830152612f6f81612f33565b9050919050565b7f596f75206861766520616c726561647920766f74656400000000000000000000600082015250565b6000612fac601683611fef565b9150612fb782612f76565b602082019050919050565b60006020820190508181036000830152612fdb81612f9f565b9050919050565b7f566f74696e672068617320656e64656400000000000000000000000000000000600082015250565b6000613018601083611fef565b915061302382612fe2565b602082019050919050565b600060208201905081810360008301526130478161300b565b9050919050565b7f416d6f756e7420796f7520656e746572656420697320696e76616c6964202c2060008201527f796f7520686176656e277420646f6e617465642074686973206d75636866756e60208201527f6473000000000000000000000000000000000000000000000000000000000000604082015250565b60006130d0604283611fef565b91506130db8261304e565b606082019050919050565b600060208201905081810360008301526130ff816130c3565b9050919050565b7f436f6e74726962756974696f6e2068617320656e646564000000000000000000600082015250565b600061313c601783611fef565b915061314782613106565b602082019050919050565b6000602082019050818103600083015261316b8161312f565b9050919050565b7f496e766573746d656e7420616d6f756e742073686f756c64206265206772656160008201527f746572207468616e207a65726f00000000000000000000000000000000000000602082015250565b60006131ce602d83611fef565b91506131d982613172565b604082019050919050565b600060208201905081810360008301526131fd816131c1565b905091905056fea264697066735822122078dedd88eddec5d1e7d9f6a4c60718d361631dd3b928f9e59120a25da120b52d64736f6c63430008110033",
  "immutableReferences": {},
  "source": "\n// SPDX-License-Identifier: GPL-3.0\n\n\npragma solidity ^0.8.0;\n\ncontract Dao{\n  \n\n\n    struct Proposal{\n        uint causeId;\n        string causeDescription;\n        address payable recipient;\n        uint amount;\n        uint votes;\n        uint endTime;\n        bool isExecuted;\n    }\n\n    mapping(uint=>Proposal) public proposal;\n    mapping(address=>bool) public isInvestor ;  //where address is the address of the investors and bool if they have invested or not \n    mapping(address=>uint) public numOfShare; //If the address has inevsted than how much uint represents how much shares he has\n    mapping(address=>mapping(uint=>bool)) private isVoted; //To see if investor has already voted or not \n    mapping(address=>mapping(address=>bool)) public withdrwalStatus; //If some person wants to withdraw money\n\n    // address[] public investorList;\n    address[]  investorList;\n    Proposal[] public proposalList;\n\n    uint public totalShares;\n    uint public totalFunds;\n    uint public nextProposalId;\n    // uint public totalCollectedFunds;  //In Total funds collected up until date \n    // uint public participationTime;\n    // uint public voteTime;\n    // uint public quorum;  \n    // address public manager;\n     uint  participationTime;\n    uint  voteTime;\n    uint  quorum; \n    address  manager;\n\n    constructor (uint _participationTime,uint _voteTime,uint _quorum){\n        require(_quorum >0 && _quorum <100,\"The value of quorum should be between 0 and 10.\");\n        manager = msg.sender ;\n        participationTime = block.timestamp + _participationTime;\n        voteTime = _voteTime;\n        quorum = _quorum; \n    }\n\n    modifier owner{\n        require(msg.sender ==  manager,\"Only manager can execute this function\");\n        _;\n    }\n    modifier onlyInvestor{\n        require(isInvestor[msg.sender] == true,\"You are not an investor\" );\n        _;\n    }\n\n    function contribuition()external payable {  //1 wei = 1 share\n        require(block.timestamp <= participationTime,\"Contribuition has ended\");\n        require(msg.value > 0,\"Investment amount should be greater than zero\");\n        totalFunds += msg.value;\n        isInvestor[msg.sender] = true;\n        numOfShare[msg.sender]+= msg.value;\n        totalShares += msg.value;\n        bool alreadyInList = false;\n        for(uint i=0;i<investorList.length;i++){\n            if(msg.sender == investorList[i]){\n                alreadyInList = true;\n                break;\n            }\n        }\n        if(alreadyInList == false ){\n            investorList.push(msg.sender);\n        }\n           \n    }\n\n    function redeemShare(uint valueToRedeem)external payable onlyInvestor{ //for redeeming the shares\n        require(valueToRedeem<=numOfShare[msg.sender],\"Amount you entered is invalid , you haven't donated this muchfunds\");\n        require(totalFunds >= valueToRedeem,\"Not suffecient funds\");\n        numOfShare[msg.sender]-= valueToRedeem;\n        if(numOfShare[msg.sender]==0){\n            isInvestor[msg.sender]== false;\n        }\n        totalFunds -= valueToRedeem;\n       payable(msg.sender).transfer(valueToRedeem);\n    }\n\n    function transfershares(uint amount,address to)public onlyInvestor{\n        require(amount <= numOfShare[msg.sender],\"Insuffiecent funds\");\n        require(totalFunds >= amount,\"Not suffecient funds\");\n        numOfShare[msg.sender]-= amount;\n        if(numOfShare[msg.sender]==0){\n            isInvestor[msg.sender]== false;\n        }\n        numOfShare[to]+= amount;\n        isInvestor[to] = true; \n        // for(uint i=0;i<investorList.length;i++){   // SIR DIDN'T MADE THIS ONE BUT WHY \n        //     if(to != investorList[i]){\n        //         investorList.push(to);  \n        //     }\n        // }\n    }\n\n    function createProposal(string  calldata _causeDescriptoin,uint amount,address payable _recipient)public {\n        require(amount <= totalFunds,\"Insuffienct funds\") ;\n        proposal[nextProposalId] = Proposal(nextProposalId,_causeDescriptoin,_recipient,amount,0,block.timestamp+voteTime,false);\n        proposalList.push(proposal[nextProposalId]);\n        nextProposalId++;\n    }\n\n    function voteProposal(uint _proposalId)public onlyInvestor {\n        require(_proposalId <= nextProposalId,\"This proposal does not exist\");\n        require(isVoted[msg.sender][_proposalId] == false,\"You have already voted\"); \n        require(proposal[_proposalId].endTime >= block.timestamp,\"Voting has ended\"); \n        // require(proposal[_proposalId].isExecuted == false,\"Funds has been transfered already\");\n        proposal[_proposalId].votes += numOfShare[msg.sender];\n        isVoted[msg.sender][_proposalId] = true;\n        proposalList[_proposalId].votes += numOfShare[msg.sender];\n\n    }\n\n    function executeProposal(uint proposalId)public  owner {\n        Proposal storage propose = proposal[proposalId];\n        require(((propose.votes*100)/totalFunds)>= quorum,\"Not greater than the quorum\");\n        require(propose.isExecuted ==false,\"Funds has been already executed\");    //Sir didn't include this statement\n        require(proposalId <= nextProposalId,\"This proposal does not exist\");     //Sir didn't include this statement  \n        propose.isExecuted = true;\n        proposalList[proposalId].isExecuted = true;\n        _transfer(propose.amount,propose.recipient);\n        // address  toSend = proposal[proposalId].recipient;\n        // payable(toSend).transfer(proposal[proposalId].amount);\n        // totalFunds -= proposal[proposalId].amount;   \n    }\n\n    function _transfer(uint amount, address payable to)internal{\n        require(amount <= totalFunds,\"Insuffienct funds\"); \n        totalFunds -= amount;\n        to.transfer(amount); \n    }\n\n    function allow(address to) public owner{\n        withdrwalStatus[manager][to] = true;\n    }\n     function disAllow(address to) public owner{\n        withdrwalStatus[manager][to] = false ;\n    }\n\n    function withdrawEther()public {\n        require(withdrwalStatus[manager][msg.sender] == true,\"You are not allowed to withdraw\");\n        require(numOfShare[msg.sender]<= totalFunds,\"We don't have enough funds\");\n        uint amount = numOfShare[msg.sender];\n        numOfShare[msg.sender] = 0;\n        _transfer(amount,payable(msg.sender));\n\n    }\n    function ProposalList() public view returns(Proposal[] memory){\n        return proposalList;\n    }\n\n\n    function InvestorList()public view returns(address[] memory){\n        return investorList;\n    }\n}\n",
  "sourcePath": "/Users/gurkiratsingh/Desktop/WEB 3 Projects/DAO/contracts/DAO.sol",
  "compiler": {
    "name": "solc",
    "version": "0.8.17+commit.8df45f5f.Emscripten.clang"
  },
  "schemaVersion": "3.4.10",
  "updatedAt": "2023-09-16T06:08:18.833Z",
  "networkType": "ethereum",
  "devdoc": {
    "kind": "dev",
    "methods": {},
    "version": 1
  },
  "userdoc": {
    "kind": "user",
    "methods": {},
    "version": 1
  }
}